:100000000C94BA010C94E2010C94E2010C94E2010C
:100010000C94E2010C94E2010C94E2010C94E201D4
:100020000C94E2010C94E2010C94FD280C949927A5
:100030000C94E2010C94E2010C94E2010C94E201B4
:100040000C94E2010C94E2010C94E2010C94E201A4
:100050000C94E2010C94E2010C94E2010C949129BD
:100060000C94E2010C94E2010C94E2010C94E20184
:100070000C94E2010C94E2010C94E2010C94E20174
:100080000C94E2010C94E2010C94E2010C94E20164
:100090000C9417300C94E2010C94E2010C94E201F0
:1000A0000C94E2010C94E2010C94E201B52AB82A06
:1000B000A72AAB2AB12AD92AD92AD92ABC2AC02AE6
:1000C000C42ACA2ACE2AD92AD42A5D3A0050617499
:1000D0007465726E2044617461205B005245414436
:1000E00059004D65617320566F6C746167653A0005
:1000F0004D6561737572656420496D706564616EEC
:100100006365733A20002D2D2D2D2D2D2D2D2D2D98
:100110002D2D2D2D2D2D2D2D2D2D2D2D2D2D2D2D0F
:100120002D2D2D2D2D2D2D2D2D2D2D2D2D2D2D2DFF
:100130002D00636F6D70656E736174696F6E5F5AC9
:100140005F496D203D2000636F6D70656E73617453
:10015000696F6E5F5A5F5265203D2000636F6D705E
:10016000656E736174696F6E5F565F496D203D20E7
:1001700000636F6D70656E736174696F6E5F565F5B
:100180005265203D20006761696E5A203D2000675E
:1001900061696E55203D20002D2D2D2D2D2D2D2DED
:1001A0002D2D2D2D2D2D2D2D2D2D2D2D2D2D2D2D7F
:1001B0002D2D2D2D2D2D2D2D2D2D2D2D2D2D2D2D6F
:1001C0002D2D2D007265616374616E63655F696DCD
:1001D000203D2000726573697374616E63655F72A0
:1001E00065203D20002D2D2D2D2D2D2D2D2D2D2D3E
:1001F0002D2D2D2D2D2D2D2D2D2D2D2D2D2D2D2D2F
:100200002D2D2D2D2D2D2D2D2D2D2D2D2D2D2D2D1E
:10021000004D65617375726520436F6E6669672E68
:100220002E2E004D65617375726520616E642072BB
:1002300065667265736820436F6E6669672E2E2E41
:10024000004C6F616420436F6E6669672E2E2E002E
:100250005D002C200020300020002D005B005D00A0
:100260005D3B002C20002030002031002D31005B50
:10027000005B00080B0002020200000904000001FC
:1002800002020000052400100105240101010424DC
:100290000206052406000107058103100040090439
:1002A0000100020A000000070502024000000705E5
:1002B000830240000012010002EF02014041233698
:1002C0008000010102030141726475696E6F204C68
:1002D0004C430041726475696E6F204C656F6E61AE
:1002E00072646F00040309040000000200090F009B
:1002F00000030401000C00000000000000000000EA
:1003000000000000000000040802011040804010BE
:10031000204080408008020401804020100201102B
:100320008010204040200404040404030405020259
:10033000020204030202020206060606060604047E
:100340000202020404000000002300260029002C01
:10035000002F0000000000250028002B002E003197
:100360000000000000240027002A002D00300000BB
:100370001223DB2C11241FBECFEFDAE0DEBFCDBF8E
:1003800011E0A0E0B1E0EAEDF5E602C005900D92C3
:10039000A439B107D9F722E0A4E9B1E001C01D9268
:1003A000A53DB207E1F711E0CAEBD1E004C0219707
:1003B000FE010E948431C83BD107C9F70E9428235F
:1003C0000C94EB320C940000CF93DF93D82FC62F00
:1003D0006DE070E08BEF91E00E945C2C6D2F8BEF55
:1003E00091E00E94FD2B6C2F8BEF91E00E94FD2B82
:1003F0008BEF91E00E94D82C91E0811190E0892F41
:10040000DF91CF910895882321F0883031F468E09E
:1004100001C060E081E80C94E40180E00895CF928F
:10042000DF92EF92FF920E948A2020E43BEF4FE799
:100430005AE40E94E21F20E030E040E05DE40E94C8
:100440003C210E9454206B017C01C114D104E104C1
:1004500081E0F806ECF4B701992777FD9095892F94
:1004600082E80E94E401882399F09927F7FC9A9585
:100470008F2D7E2D6D2D83E80E94E401882341F0AD
:100480006C2D84E8FF90EF90DF90CF900C94E40106
:1004900080E0FF90EF90DF90CF900895CF92DF92B1
:1004A000EF92FF920E948A2020E43BEF4FE75AE44C
:1004B0000E94E21F20E030E040E05DE40E943C2129
:1004C0000E9454206B017C01C114D104E10481E03D
:1004D000F806ECF4B701992777FD9095892F85E808
:1004E0000E94E401882399F09927F7FC9A958F2DB3
:1004F0007E2D6D2D86E80E94E401882341F06C2D4D
:1005000087E8FF90EF90DF90CF900C94E40180E0BB
:10051000FF90EF90DF90CF900895CF93DF938115F8
:1005200022E0920768F4EC016D2F88E80E94E40154
:10053000882331F06C2F89E8DF91CF910C94E4018E
:1005400080E0DF91CF910895CF93811528E0920745
:10055000E0F4811524E0920730F096958795969502
:100560008795C82F13C0811522E0920728F0969531
:100570008795C82F63E00BC0C82F8F3F910519F0F6
:1005800010F061E004C060E002C0CFEF67E08AE8ED
:100590000E94E4016C2F8BE80E94E40181E0CF917E
:1005A0000895882321F060E081E80C94E40188E05C
:1005B0000C9403021F93CF93DF93182FEB016DE090
:1005C00070E08BEF91E00E945C2C60EB8BEF91E090
:1005D0000E94FD2B612F8BEF91E00E94FD2B8BEF92
:1005E00091E00E94D82C882329F081E0888380E064
:1005F00090E017C041E050E06DE070E08BEF91E0DB
:100600000E94D52C8BEF91E00E946E2B009741F059
:100610008BEF91E00E94762B888381E090E001C00F
:100620001882DF91CF911F9108951F93CF93DF938D
:100630001F92CDB7DEB7182FBE016F5F7F4F80E8E6
:100640000E94DA02892B41F069816F70612B698306
:1006500080E80E94E40101C080E00F90DF91CF911B
:100660001F910895803A39F0803B19F0811106C03E
:1006700003C080EB01C080EA0C94150380E008956C
:1006800080EB0C94150380EB0E941503811102C0CE
:1006900080E0089580E10E9415038823C9F380E279
:1006A0000E9415038823A1F30895CF93DF931F922F
:1006B000CDB7DEB7BE016F5F7F4F81E80E94DA02DF
:1006C000892B39F069816061698381E80E94E401C6
:1006D00001C080E00F90DF91CF9108951F93CF93D9
:1006E000DF931F92CDB7DEB7182FBE016F5F7F4F2C
:1006F00080E80E94DA02892B11F480E00FC0698142
:100700006E7F6983113019F46160698304C011231D
:1007100011F0153091F780E80E94E4010F90DF910D
:10072000CF911F910895CF93DF931F92CDB7DEB77E
:10073000BE016F5F7F4F0E94DA02892B11F0898121
:1007400001C08FEF0F90DF91CF9108958FE80C9447
:100750009303EF92FF920F931F93CF93DF9300D0F9
:1007600000D0CDB7DEB77C018B010E94A60381FFCC
:10077000FCCFBE016D5F7F4F84E90E94DA02892BB6
:1007800051F1BE016C5F7F4F85E90E94DA02892B2F
:1007900011F1BE016F5F7F4F86E90E94DA02892B5B
:1007A000D1F0BE016E5F7F4F87E90E94DA02892B8C
:1007B00091F08B819C81982789279827F701918355
:1007C000808389819A81982789279827F8019183C6
:1007D000808381E009C08FEF9FEFF70191838083D1
:1007E000F8019183808380E00F900F900F900F901D
:1007F000DF91CF911F910F91FF90EF900895CF92CD
:10080000DF92EF92FF921F93CF93DF93EC016B0186
:100810007A0180E40E941503BE016E5F7F4FCE0116
:100820000E94A903182F811104C080EB0E9432039B
:1008300010C0C114D10429F088819981F6019183F7
:100840008083E114F10429F08A819B81F70191836F
:100850008083812FDF91CF911F91FF90EF90DF90E8
:10086000CF900895AF92BF92CF92DF92EF92FF9216
:100870000F931F93FC0177836683518740873387EB
:10088000228715870487F786E686D182C082B18ADF
:10089000A08A8FEF9FEF93838283158214821F912A
:1008A0000F91FF90EF90DF90CF90BF90AF900895A1
:1008B000CF93DF93EC0141E06E81888199810E94A2
:1008C000F51140E06E81888199810E94181141E004
:1008D0006885888199810E94F51140E0688588814A
:1008E00099810E94181141E06A85888199810E944E
:1008F000F51140E06A85888199810E94181141E0D4
:100900006C85888199810E94F51140E06C85888111
:1009100099810E94181141E06E85888199810E9419
:10092000F51140E06E85888199810E9418118FEF42
:100930009FEF9B838A831D821C82DF91CF91089554
:10094000062E000C770BFC017383628377FD02C0D7
:10095000758364830895FC018281938108951F93B8
:10096000CF93DF93EC01CB01642F122F48832983AF
:100970009B838A8341E00E94F511412F68818A811F
:100980009B810E9418111C83DF91CF911F910895C4
:100990001F93CF93DF93EC01498111E041276881D8
:1009A0008A819B810E9418111C83DF91CF911F9136
:1009B0000895CF93DF93EC01498168818A819B81FF
:1009C0000E9418111C82DF91CF910895DC01FA0179
:1009D00014966C9314973097F1F011968C911197AF
:1009E0004C915081882361F0662361F081E090E0B2
:1009F00001C0880F4A95EAF7809585238083089582
:100A00006623A1F321E030E001C0220F4A95EAF706
:100A1000252B208308950895FF920F931F93CF9362
:100A2000DF931F92CDB7DEB78C01F62E6983FC01F0
:100A3000EA50FF4FAE014F5F5F4F64FF02C061E0BD
:100A400001C060E0808191810E94E604F801E850D5
:100A5000FF4FAE014F5F5F4FF5FE02C061E001C086
:100A600060E0808191810E94E604F801E650FF4F2A
:100A7000AE014F5F5F4FF6FE02C061E001C060E073
:100A8000808191810E94E604F801E450FF4FAE019D
:100A90004F5F5F4FF7FE02C061E001C060E0808100
:100AA00091810E94E604F801E250FF4FAE014F5FD2
:100AB0005F4FF1FE02C061E001C060E08081918182
:100AC0000E94E604F801F395AE014F5F5F4FF2FE1E
:100AD00002C061E001C060E0808191810E94E60473
:100AE000F801EE5FFE4FAE014F5F5F4FF3FE02C0B5
:100AF00061E001C060E0808191810E94E604F8011C
:100B0000EC5FFE4FAE014F5F5F4FF0FE02C061E051
:100B100001C060E0808191810E94E604F801EC5000
:100B2000FF4F498162E1808191810E94AD100F9059
:100B3000DF91CF911F910F91FF9008950F931F9315
:100B4000CF93DF93EC01FC013F9684E3DF011D921C
:100B50008A95E9F7E356FF4F84E4DF011D928A95F9
:100B6000E9F780E090E0A0E8BFE380839183A2836F
:100B7000B38380E390E00E943B238C010E9400122B
:100B8000FE01E051FF4F1183008384E090E00E945A
:100B90003B23FE01EE50FF4F9183808383E090E082
:100BA0000E943B23FE01EC50FF4F91838083ED595F
:100BB000F10980E09EEFAFEFB6E480839183A283DA
:100BC000B3833D96108211821282138282E388835E
:100BD00083E4898384E58A8385E68B8386E78C8337
:100BE00087E88D8388E98E8389EA8F838AEB8887FB
:100BF0008BEC89878CED8A878DEE8B878EEF8C87C7
:100C000081E08D878AE08E877997118210823296F3
:100C100011821082329611821082329611821082D5
:100C200072961082CD5ADF4F80EA96E8A1E0B0E0DC
:100C300088839983AA83BB83DF91CF911F910F9102
:100C40000895CF93DF93EC01C051DF4F6FEF7FEF3B
:100C5000888199810E94B8136FEF7FEF8881998115
:100C60000E94C8136FEF7FEF888199810E94D8138B
:100C700088819981DF91CF910C947C12CF93DF937F
:100C8000EC010E94210660E2CE01DF91CF910C942D
:100C90000C05CF93DF93EC01CD59DF4F8881811193
:100CA0000AC00E94430363E070E080E090E00E948D
:100CB000002A81E08883DF91CF9108950F931F93DD
:100CC000CF93DF938C010D591F4FF8012081222310
:100CD00061F0EC010E944003CE010E94210660E217
:100CE000CE010E940C05F8011082DF91CF911F9177
:100CF0000F9108958F929F92AF92BF92CF92DF9201
:100D0000EF92FF920F931F93CF93DF93EC0168E66E
:100D10000E940C05CE010E9449068E0100511F4F12
:100D200060E070E0F801808191810E94C81360E06A
:100D300070E0F801808191810E94B8136FEF7FEF1E
:100D4000F801808191810E94D813F80180819181FE
:100D50000E947C1288E290E00E943C2A0E5F1F4FA6
:100D600040E050E060E070E0F801808191810E94F5
:100D7000FF03F80100811181F80160817181072E64
:100D8000000C880B990B0E948C206B017C01F801F0
:100D900062817381072E000C880B990B0E948C20B6
:100DA0004B015C01A7019601C701B6010E943C21DD
:100DB0006B017C01A5019401C501B4010E943C2195
:100DC0009B01AC01C701B6010E94711F0E94AF21B7
:100DD000FE01E95AFF4F6083718382839383CE01C2
:100DE0000E945E06CE01DF91CF911F910F91FF907F
:100DF000EF90DF90CF90BF90AF909F908F900C942A
:100E000021060F931F93CF93DF93EC016D856F70D5
:100E100070E08C0100511F4FF801808191810E9488
:100E2000B8136D8570E084E0759567958A95E1F754
:100E3000F80180819181DF91CF911F910F910C94E6
:100E4000D8130F931F93CF93DF93EC01C859DF4F53
:100E50008C0108551F4FFE01EC5BFF4F2081318153
:100E600042815381688179818A819B810E943C21E2
:100E70006993799389939993C017D10761F7DF91AB
:100E8000CF911F910F910895855A9F4FFC0160816A
:100E90007181828193810895815A9F4FFC01608105
:100EA00071818281938108956F927F928F929F9238
:100EB000AF92BF92CF92DF92EF92FF920F931F9368
:100EC000CF93DF93CDB7DEB728970FB6F894DEBF88
:100ED0000FBECDBF162F642E722EC982DA82EB822E
:100EE000FC828D829E82AF82B88687E991E00E9463
:100EF0000722112351F1662D87E991E00E94072214
:100F0000672D87E991E00E940722602F87E991E031
:100F10000E94072244E050E0BE016F5F7F4F87E9E7
:100F200091E00E945322612F617867FF03C06150F6
:100F30006E6F6F5F613049F044E050E0BE016B5F5F
:100F40007F4F87E991E00E94532228960FB6F894CC
:100F5000DEBF0FBECDBFDF91CF911F910F91FF90EC
:100F6000EF90DF90CF90BF90AF909F908F907F9049
:100F70006F9008953F924F925F926F927F928F92FF
:100F80009F92AF92BF92CF92DF92EF92FF920F9318
:100F90001F93CF93DF93CDB7DEB72A970FB6F894A0
:100FA000DEBF0FBECDBF9A878987E62EF42E322E84
:100FB00081E0860F09851A8500511F4F823120F488
:100FC00081E0840F823140F160E189859A850E9439
:100FD0000C056FEF7FEFF801808191810E94B813BB
:100FE0006FEF7FEFF801808191810E94C8136FEF4E
:100FF0007FEFF801808191810E94D813F8018081F0
:1010000091810E947C1288E290E00E943C2A50E08C
:1010100040E030E82FEB14C189859A850E9449068B
:10102000F0E1EF1619F0FF1209C0FE2C63E4898588
:101030009A850E940C056FEF7FEF08C061E48985F7
:101040009A850E940C056E2DEE0C770BF8018081BD
:1010500091810E94B8136FEF7FEFF8018081918139
:101060000E94C8136F2DFF0C770BF80180819181CE
:101070000E94D813F801808191810E947C1288E23D
:1010800090E00E943C2A40E050E060E070E0E9849B
:10109000FA84F2EFEF0EF11CF701808191810E943A
:1010A000FF03F701E080F180F70160817181E9853C
:1010B000FA85E55BFF4F80819181681B790B072ED4
:1010C000000C880B990B0E948C204B015C01F701EE
:1010D00062817381E985FA85E35BFF4F80819181AD
:1010E000681B790B072E000C880B990B0E948C2033
:1010F0006D837E838F8398879B01AC010E943C2186
:101100002B013C01A5019401C501B4010E943C21C1
:101110009B01AC01C301B2010E94711F0E94AF216B
:101120002B013C01E985FA85E15AFF4F208131818D
:10113000428153810E943C219B01AC0160E070E040
:1011400080E89FE30E94E21F69837A838B839C83FC
:101150009058A30192010E94E21F2B013C019B01C8
:10116000AC01C501B4010E943C216B017C01E98501
:10117000FA85ED5BFF4F6083718382839383A301C4
:1011800092016D817E818F8198850E943C214B0167
:101190005C01E985FA85E95BFF4F60837183828397
:1011A0009383F2E03F121CC0F801808191810E947C
:1011B000EB13782EE985FA85E250FF4F0190F0811C
:1011C000E02D8481811106C0F801808191810E9407
:1011D000E81301C080E10FEF272D482F64E028C0FD
:1011E000F1E03F1229C0F801808191810E94EB1348
:1011F000782EE985FA85E250FF4F0190F081E02DCD
:101200008481811106C0F801808191810E94E813D8
:1012100001C080E1812C912C90ECA92E9FE7B92E82
:10122000C980DA80EB80FC800FEF272D482F63E028
:1012300089859A850E94540759814A813B812C8176
:10124000652F742F832F922F2A960FB6F894DEBF46
:101250000FBECDBFDF91CF911F910F91FF90EF9007
:10126000DF90CF90BF90AF909F908F907F906F90C6
:101270005F904F903F9008950F931F93CF93DF930C
:10128000EC018C01015A1F4F80E090E0A0E8BFE321
:10129000F80180839183A283B383CE010E94490623
:1012A0006AE070E080E090E00E94002A20E040E0E8
:1012B00060E0CE010E94BA0720E030E04BEE53E43C
:1012C0000E94E21FF8016083718382839383CE01C1
:1012D000DF91CF911F910F910C945E062F923F9258
:1012E0004F925F926F927F928F929F92AF92BF9236
:1012F000CF92DF92EF92FF920F931F93CF93DF93E2
:10130000CDB7DEB727970FB6F894DEBF0FBECDBFBF
:101310009F838E83362EF42EC22E0D832E2CEE202C
:10132000B9F0E12C00E02FEF462F0E946E094B012F
:101330005C012FEF4F2D632D8E819F810E946E09DE
:101340009B01AC01C501B4010E94E21F4B015C018D
:101350000E811F8100511F4F81E08F0D823140F4BB
:1013600081E08C0D823120F481E0830D823140F1E7
:1013700060E18E819F810E940C056FEF7FEFF80185
:10138000808191810E94B8136FEF7FEFF801808117
:1013900091810E94C8136FEF7FEFF80180819181E6
:1013A0000E94D813F801808191810E947C1288E20A
:1013B00090E00E943C2A712C412C30E82FEB5DC15B
:1013C0008E819F810E944906F0E1FF1619F0CF122D
:1013D0002DC0CF2CEC2CCC0CFF0880E138120FC0B4
:1013E00066E88E819F810E940C056FEF7FEFF80108
:1013F000808191810E94B8136FEF7FEF10C06AE87F
:101400008E819F810E940C056FEF7FEFF801808134
:1014100091810E94B813632D032C000C770BF80107
:10142000808191810E94C813B7012CC00C2C000C44
:10143000DD08EF2CFF0CFF08F0E13F120EC064E85E
:101440008E819F810E940C05B701F80180819181F6
:101450000E94B8136FEF7FEF0FC068E88E819F8105
:101460000E940C05B701F801808191810E94B81398
:10147000632D032C000C770BF801808191810E9471
:10148000C813B601F801808191810E94D813F80138
:10149000808191810E947C1288E290E00E943C2A27
:1014A00040E050E060E070E06E807F80F2EF6F0E11
:1014B000711CF301808191810E94FF03EE81FF8105
:1014C000E55AFF4FC080D180E280F380F3010190A4
:1014D000F081E02DFC83EB8360817181EE81FF81DF
:1014E000E15BFF4F80819181681B790B072E000C17
:1014F000880B990B0E948C20A70196010E943C2129
:101500002B013C018E819F818D5B9F4F9A83898344
:10151000FC014082518262827382EB81FC81628194
:101520007381EE81FF81EF5AFF4F80819181681BAB
:10153000790B072E000C880B990B0E948C20A701B9
:1015400096010E943C216B017C018E819F81895B09
:101550009F4F9C838B83FC01C082D182E282F38205
:101560002220C1F0A3019201C501B4010E943C21D7
:10157000E981FA816083718382839383A701960155
:10158000C501B4010E943C21EB81FC816083718321
:1015900082839383E981FA81C080D180E280F380E5
:1015A000EB81FC8180809180A280B380A5019401B1
:1015B000C501B4010E943C212B013C01A701960109
:1015C000C701B6010E943C219B01AC01C301B201DD
:1015D0000E94711F0E94AF21762E472E682E592E31
:1015E000FD81F230E1F4F801808191810E94EB13DA
:1015F000282EEE81FF81E250FF4F0190F081E02D17
:101600008481811106C0F801808191810E94E813D4
:1016100001C080E1032D222D482F62E028C0FD810A
:10162000F13049F5F801808191810E94EB13282E59
:10163000EE81FF81E250FF4F0190F081E02D848127
:10164000811106C0F801808191810E94E81301C0D8
:1016500080E1812C912C90ECA92E9FE7B92EC72C0C
:10166000D42CE62CF52C032D222D482F61E08E8101
:101670009F810E945407362D252D672D742D832FB1
:10168000922F27960FB6F894DEBF0FBECDBFDF9125
:10169000CF911F910F91FF90EF90DF90CF90BF906F
:1016A000AF909F908F907F906F905F904F903F9002
:1016B0002F9008958F929F92AF92BF92CF92DF9218
:1016C000EF92FF920F931F93CF93DF93EC010E9451
:1016D000490620E041E060E0CE010E94BA076E01B9
:1016E00022EFC20ED11CD601ED91FC9111978081A1
:1016F00091819E01215B3F4F4901A15AB1095D01D2
:101700008F3C9F4F0CF489C0828193818C32914031
:101710000CF083C0CE010E942106CE010E943E063D
:1017200010E06AE070E080E090E00E94002AE12C86
:1017300000E021E040E061E0CE010E946E09D601A8
:10174000ED91FC916081718142815381F40180812E
:101750009181FC01E61BF70BF7FF03C0F195E195C2
:10176000F109D5012D913C91C901841B950B97FF7F
:1017700003C09195819591098E0F9F1F069714F4D0
:101780001F5F01C010E0F40171836083D5014D93A8
:101790005C93133030F2B12C7E01BBE4EB0EF11CF4
:1017A0008E01035B1F4F6AE070E080E090E00E94D2
:1017B000002A20E041E060E0CE010E94BA07D60195
:1017C000ED91FC916081718142815381F7018081AB
:1017D0009181FC01E61BF70BF7FF03C0F195E19542
:1017E000F109D8012D913C91C901841B950B97FFFC
:1017F00003C09195819591098E0F9F1F069714F450
:10180000B39401C0B12CF70171836083D8014D936B
:101810005C93B2E0BB1538F60EC0F4011182108261
:10182000D5011D921C92FE01E55BFF4F11821082D3
:10183000329611821082CE01DF91CF911F910F91CC
:10184000FF90EF90DF90CF90BF90AF909F908F90E0
:101850000C945E060F931F93CF93DF93EC010E94CD
:101860004906CE010E945A0BCE010E947A068E01D3
:10187000055A1F4FFE01E95AFF4F208131814281F5
:10188000538164EA70E78DE79FE30E94E21FF8014D
:101890006083718382839383CE01DF91CF911F9107
:1018A0000F910C943C096F927F928F929F92AF920E
:1018B000BF92CF92DF92EF92FF920F931F93CF933D
:1018C000DF93EC018C010C501F4F61E0F801808127
:1018D00091810E94D5108111F8C085E090E00E94AE
:1018E0003B237C01F8016081718120E044E00E948B
:1018F000AF044E01F6EF8F0E911CF401F182E082ED
:1019000085E090E00E943B237C01F80160817181B9
:1019100020E045E00E94AF045E01F8EFAF0EB11C7D
:10192000F501F182E08285E090E00E943B237C019A
:10193000F8016081718120E046E00E94AF046E01F1
:10194000FAEFCF0ED11CF601F182E08285E090E043
:101950000E943B233C01F8016081718120E047E057
:101960000E94AF047E01FCEFEF0EF11CF7017182C3
:10197000608285E090E00E943B233C01F801608199
:10198000718121E041E00E94AF04FE01E250FF4F6F
:101990007182608285E090E00E943B233C01F80167
:1019A0006081718121E042E00E94AF04FE01F39565
:1019B0007182608285E090E00E943B233C01F80147
:1019C0006081718121E043E00E94AF04FE01EE5F7F
:1019D000FE4F7182608285E090E00E943B233C01D3
:1019E000F8016081718121E040E00E94AF04FE01B6
:1019F000EC5FFE4F71826082F401808191810E94D0
:101A0000C804F501808191810E94C804F60180819B
:101A100091810E94C804F701808191810E94C804CD
:101A200060E070E0FE01E051FF4F808191810E94F3
:101A30006013182F811135C0CE010E9421060E942B
:101A40005503882341F180E00E94D102882319F1D7
:101A5000FE01ED5AFF4F60817181828193810E9466
:101A60000F028823C1F060E070E0CB010E944E02BB
:101A7000882389F08AE090E00E948D02882359F043
:101A800081E00E946E03882331F085E090E00E949F
:101A9000A40281111CC06AE371E087E991E00E9411
:101AA0009523F401808191810E94C804F501808111
:101AB00091810E94D904F601808191810E94D9040C
:101AC000F701808191810E94D90411E034C0CE01D8
:101AD0000E942A0CCE010E943E06F4018081918171
:101AE0000E94C804F501808191810E94C804F6011A
:101AF000808191810E94C804F701808191810E94B8
:101B0000C80464EF71E080E090E00E94002AF401D4
:101B1000808191810E94D904F501808191810E9488
:101B2000C804F601808191810E94D904F701808167
:101B300091810E94D904812FDF91CF911F910F9144
:101B4000FF90EF90DF90CF90BF90AF909F908F90DD
:101B50007F906F9008952F923F924F925F926F9275
:101B60007F928F929F92AF92BF92CF92DF92EF922D
:101B7000FF920F931F93CF93DF93CDB7DEB7669796
:101B80000FB6F894DEBF0FBECDBF9E8B8D8B162F88
:101B90000E944906ED89FE89E250FF4F0190F081D5
:101BA000E02D8481882311F002E001C000E0602F65
:101BB00068688D899E890E940C058D899E89885947
:101BC0009F4F9C838B83212C312CAD89BE89A051E2
:101BD000BF4FBA83A983ED89FE89EE50FF4FFE8384
:101BE000ED838D899E89855A9F4F9B878A87AD8912
:101BF000BE89A15BBF4FBD87AC87ED89FE89ED5BD8
:101C0000FF4FFF87EE878D899E898F5A9F4F998B53
:101C1000888BAD89BE89A95BBF4FBB8BAA8BED8931
:101C2000FE89E250FF4FF887EF8304680C8BB10107
:101C3000A981BA818D919C910E94C813E981FA8192
:101C4000808191810E947C1288E290E00E943C2A6F
:101C500040E050E060E070E0AD81BE818D919C91EC
:101C60000E94FF03EA85FB8540805180628073807B
:101C7000AD81BE81AD90BC90F50160817181AC8574
:101C8000BD858D919C91681B790B072E000C880BEC
:101C9000990B0E948C20A30192010E943C216B01B0
:101CA0007C01EE85FF856083718382839383D501F8
:101CB00012966D917C911397E889F98980819181C1
:101CC000681B790B072E000C880B990B0E948C2047
:101CD000A30192010E943C214B015C01AA89BB89AE
:101CE0006D937D938D939C9313979B01AC010E9400
:101CF0003C212B013C01A7019601C701B6010E94BE
:101D00003C219B01AC01C301B2010E94711F0E94E2
:101D1000AF212B013C01EB81FC8161937193819395
:101D20009193FC83EB831230D9F4022DA981BA81FF
:101D30008D919C910E94EB13782EAF81B885ED9127
:101D4000FC918481811107C0E981FA8180819181B0
:101D50000E94E81301C080E1272D482F62E024C0D3
:101D6000113031F5022DA981BA818D919C910E948B
:101D7000EB138987AF81B885ED91FC918481811146
:101D800007C0E981FA81808191810E94E81301C036
:101D900080E1812C912C90ECA92E9FE7B92E730144
:101DA00062012985482F61E08D899E890E94540730
:101DB000FFEF2F1A3F0A81E12816310459F0F0E1B4
:101DC0002F16310409F033CF6C898D899E890E94CA
:101DD0000C052DCF66960FB6F894DEBF0FBECDBFB3
:101DE000DF91CF911F910F91FF90EF90DF90CF90F7
:101DF000BF90AF909F908F907F906F905F904F902B
:101E00003F902F9008958F929F92AF92BF92EF9242
:101E1000FF920F931F93CF93DF93EC01FC01E250ED
:101E2000FF4F0190F081E02D8481811102C010E00C
:101E300001C012E0612F6868CE010E940C051111EB
:101E400004C06D856F7070E002C06FEF7FEF8E0190
:101E500000511F4FF801808191810E94B8136FEFEC
:101E60007FEFF801808191810E94D81360E0CE015C
:101E70000E94AB0D8D858F70FE0194E0899FE00D6F
:101E8000F11D1124E859FF4F80809180A280B3801A
:101E900008581109C455DF4FF80121913191419142
:101EA00051918F017F01F0E4EF0EF11CC501B401E7
:101EB0000E94E21FF70160837183828393830C1772
:101EC0001D0751F7DF91CF911F910F91FF90EF9078
:101ED000BF90AF909F908F9008952F923F924F9216
:101EE0005F926F927F928F929F92AF92BF92CF92AA
:101EF000DF92EF92FF920F931F93CF93DF93CDB7B3
:101F0000DEB729970FB6F894DEBF0FBECDBF998715
:101F100088876D83142F022F0E94490668E8888500
:101F200099850E940C05112321F0888599850E94CE
:101F3000030F888599850E94010760E0888599854F
:101F40000E94AB0D112321F0888599850E942107FD
:101F5000E885F9856585EC59FF4F2F010023E1F0F5
:101F6000462F50E074E0559547957A95E1F76F70EC
:101F700020E0888599850E94BA0720E030E04BEE8A
:101F800053E40E94701F9B01AC0164EA70E78DE787
:101F90009FE30E94E21F2FC0E62FF0E044E0F5959A
:101FA000E7954A95E1F77A96EE0FFF1FEE0FFF1FB8
:101FB00088859985E80FF91FDC01A95ABF4F2D913B
:101FC0003D914D915C9160817181828193810E94EC
:101FD000E21F24EA30E74DE75FE30E943C2120E066
:101FE00030E04BEE53E40E94E21F20E030E04AE78D
:101FF00054E40E943C21F2016083718382839383C5
:10200000888599859A8389833C019FE0690E711CBC
:10201000E885F985ED5BFF4FFC83EB838885998527
:10202000855A9F4F9F838E832884398490EF290E91
:10203000311CE981FA810191FA83E983802F8F7045
:10204000E885F98594E0899FE00DF11D1124E85998
:10205000FF4FA02FB0E024E0B595A7952A95E1F7B2
:102060005A96AA0FBB1FAA0FBB1F88859985A80F78
:10207000B91F2D913D914D915C916081718182815B
:1020800093810E94701FEE81FF8120813181428106
:1020900053810E943C216B017C01E885F9856685AE
:1020A00070E080E090E00E948A209B01AC01C701B3
:1020B000B6010E943C21F20120813181428153818D
:1020C0000E94E21F6B017C01F30161937193819384
:1020D00091933F01FD81F130C1F4F1018081918143
:1020E0000E94EB13182FF101808191810E94E81367
:1020F000812C912C90ECA92E9FE7B92E212F482FEF
:1021000067E0888599850E9454078B819C8186159C
:10211000970509F08ECF60E28885998529960FB6DC
:10212000F894DEBF0FBECDBFDF91CF911F910F910D
:10213000FF90EF90DF90CF90BF90AF909F908F90E7
:102140007F906F905F904F903F902F900C940C0574
:10215000682F8BEF91E00C94FD2BCF93DF93FC0164
:10216000623129F481818417E9F0418306C063312B
:1021700021F482814817B1F04283C42FD62F6081A9
:10218000606270E08BEF91E00E945C2C8D2F0E94CA
:10219000A8108C2F0E94A8108BEF91E0DF91CF91B7
:1021A0000C94D82CDF91CF910895CF93DF93EC015D
:1021B000683008F067E068838BEF91E00E943C2C68
:1021C0006881606270E08BEF91E00E945C2C8BEF85
:1021D00091E00E94D82C882389F069E471E087E9B6
:1021E00091E00E9476236881606270E04AE050E0EE
:1021F00087E991E00E94592481E017C04FEF60E029
:10220000CE010E94AD104FEF61E0CE010E94AD10F3
:1022100040E062E1CE010E94AD1040E063E1CE01FA
:102220000E94AD1019821A8280E0DF91CF9108954B
:102230000F931F93CF93DF93362FE62FE770DC01C8
:10224000683018F411962C9102C012962C914423F8
:1022500071F041E050E060E070E004C0440F551FB1
:10226000661F771FEA95D2F7C22FC42B0EC041E03C
:1022700050E060E070E004C0440F551F661F771FF8
:10228000EA95D2F74095C42FC223C21791F0383097
:1022900010F0D3E101C0D2E18C014C2F6D2F0E94D0
:1022A000AD10D23119F4F801C18303C0D8011296E0
:1022B000CC93DF91CF911F910F9108950F931F93AE
:1022C000CF93DF93EC018B016881606270E08BEF4C
:1022D00091E00E945C2C82E10E94A810802F0E9455
:1022E000A810812F0E94A8108BEF91E00E94D82C9B
:1022F00009831A83DF91CF911F910F9108951F9346
:10230000CF93DF93EC01162F6881606270E08BEF52
:1023100091E00E945C2C111102C082E101C083E1B6
:102320000E94A8108BEF91E00E94D82C6881606217
:1023300070E041E050E08BEF91E00E94D52C8BEFF4
:1023400091E00E94762BDF91CF911F9108951F930A
:10235000CF93DF93EC01162F6881606270E08BEF02
:1023600091E00E945C2C812F0E94A8108BEF91E0DD
:102370000E94D82C6881606270E041E050E08BEFF1
:1023800091E00E94D52C8BEF91E00E94762BDF919B
:10239000CF911F910895FF920F931F93CF93DF93D7
:1023A000EC01F42E683008F4022F162F1770602FFE
:1023B000CE010E94A71141E050E060E070E004C04F
:1023C000440F551F661F771F1A95D2F7FF2011F093
:1023D000482B02C040954823602FCE01DF91CF915A
:1023E0001F910F91FF900C94AD100F9331E04111AC
:1023F00030E001E020E0432F0E94CB110F910895BF
:102400006F927F928F929F92AF92BF92CF92DF9204
:10241000EF92FF920F931F93CF93DF93EC0180E233
:10242000EAE1F1E0DE01509601900D928A95E1F724
:1024300083E090E00E943B23FC0110821182128213
:102440009D878C8782E190E00E943B233C014E01F6
:1024500080E1880E911CCC84DD8454018CE0E82E50
:10246000F12C03E010E022E030E041E050E060E0D9
:1024700070E0C3010E9432047F826E8282E190E0AC
:102480000E943B233C01CC84DD849DE0E92EF12CAD
:1024900007E010E026E030E045E050E064E070E066
:1024A000C3010E9432047986688682E190E00E942E
:1024B0003B233C01CC84DD842EE0E22EF12C0BE0AA
:1024C00010E02AE030E049E050E068E070E00E946F
:1024D00032047B866A861F861E86DF91CF911F910C
:1024E0000F91FF90EF90DF90CF90BF90AF909F90B3
:1024F0008F907F906F900895CF93DF93EC016E855E
:102500007F858C859D850E945E116B8168838C819F
:1025100089838D818A838E819F810E94A004698135
:10252000888599850E94A0046A818A859B85DF91B0
:10253000CF910C94A004EF92FF920F931F93CF932F
:10254000DF93CDB7DEB760970FB6F894DEBF0FBE4E
:10255000CDBF8C01FB01DC011E966D917C911F9714
:102560004031510588F081E090E0068402C0880F78
:10257000991F0A94E2F780959095862397231F96DA
:102580009C938E931E978FC021E030E0068402C09A
:10259000220F331F0A94E2F7CB01822B932BD80131
:1025A0001F969C938E931E97440F551FA089B18947
:1025B000A40FB51F2D913C917E01B9E0EB0EF11CEB
:1025C00088E0D7011D928A95E9F7C90162E070E0C1
:1025D0000E944E319A878987C90137FD01969595EA
:1025E000879562E070E00E944E319C878B87C9011D
:1025F00037FD0396959587959595879562E070E0F0
:102600000E944E319E878D8737FF02C0295F3F4F62
:10261000C90123E0959587952A95E1F762E070E07E
:102620000E944E31988B8F87868197819A83898308
:10263000808591859C838B83828593859E838D8302
:102640008485958598878F83B701FE01319641E097
:1026500050E0DB012D913D91BD01D8011E968D9179
:102660009C911F971216130654F49A01008002C021
:10267000220F331F0A94E2F7822B932B0CC09A018E
:10268000008002C0220F331F0A94E2F72095309594
:1026900082239323D8011F969C938E931E97329684
:1026A000EE16FF06B1F660960FB6F894DEBF0FBEC9
:1026B000CDBFDF91CF911F910F91FF90EF900895C3
:1026C0001F93CF93DF93EC018C859D850E94D510DD
:1026D000182F811147C08E819F810E9458048885E0
:1026E00099850E9458048A859B850E9458048E8192
:1026F0009F810E94AB048883888599850E94AB04E2
:1027000089838A859B850E94AB048A831F861E86E7
:102710008E819F810E94AB046E817F81AC01CE01CE
:102720000E949B12888599850E94AB0468857985F3
:10273000AC01CE010E949B128A859B850E94AB044E
:102740006A857B85AC01CE010E949B12CE010E945E
:102750007C1240E85AE166E070E08BEF91E00E9465
:102760004E2C01C011E0812FDF91CF911F91089570
:102770001F93CF93DF93EC01162F572F6E817F812C
:10278000412F0E949B121B83DF91CF911F910895CF
:102790001F93CF93DF93EC01162F572F6885798510
:1027A000412F0E949B121C83DF91CF911F910895AE
:1027B0001F93CF93DF93EC01162F572F6A857B85EC
:1027C000412F0E949B121D83DF91CF911F9108958D
:1027D000FC0180810895FC01828108951F93CF93AD
:1027E000DF93EC01162F0E94D532181739F0612FB4
:1027F000CE01DF91CF911F910C94DD32DF91CF910B
:102800001F9108950C94D5320F931F93CF93DF93AC
:102810002DE0289F8001299F100D1124C0E0D0E0F9
:10282000E0919401F0919501EC0FFD1F6081CE01C4
:10283000800F911F0E94EE132196CD30D10581F7B4
:10284000DF91CF911F910F910895E0919401F09144
:10285000950165858E529F4F0E94EE13E091940181
:10286000F0919501668582EE90E00C94EE13E09174
:102870009401F0919501E15BFF4F618186EE90E05C
:102880000E94EE13E0919401F0919501E15BFF4FFE
:10289000608187EE90E00E94EE13E0919401F09148
:1028A0009501EF5AFF4F618188EE90E00E94EE1390
:1028B000E0919401F0919501EF5AFF4F608189EE0C
:1028C00090E00E94EE13E0919401F0919501E55B98
:1028D000FF4F61818AEE90E00E94EE13E091940137
:1028E000F0919501E55BFF4F60818BEE90E00E94D7
:1028F000EE13E0919401F0919501E35BFF4F61814C
:102900008CEE90E00E94EE13E0919401F09195011D
:10291000E35BFF4F60818DEE90E00C94EE13EF923D
:10292000FF920F931F93CF93DF93C0919401D091A7
:1029300095012DE0AC01249FC001259F900D11242D
:102940007E015DE0E50EF11C8C010C1B1D0BC80126
:102950008C0F9D1F0E9402148993CE15DF05B9F7D5
:10296000DF91CF911F910F91FF90EF900895CF933A
:10297000DF93C0919401D09195018E529F4F0E9498
:1029800002148D8782EE90E00E9402148E87DF9100
:10299000CF9108950F931F93CF93009194011091BD
:1029A000950186EE90E00E940214C82F87EE90E019
:1029B0000E940214F801E15BFF4F2C2F30E0322F10
:1029C0002227280F311D3183208388EE90E00E945A
:1029D0000214C82F89EE90E00E940214F801EF5A09
:1029E000FF4F2C2F30E0322F2227280F311D31834B
:1029F00020838AEE90E00E940214C82F8BEE90E0B4
:102A00000E940214F801E55BFF4F2C2F30E0322FBB
:102A10002227280F311D318320838CEE90E00E9405
:102A20000214C82F8DEE90E00E940214F801E35BBF
:102A3000FF4F2C2F30E0322F2227280F311D3183FA
:102A40002083CF911F910F910895CF92DF92EF9243
:102A5000FF920F931F93CF93DF9361E772E087E9B3
:102A600091E00E948323E12CF12C6FE672E087E96C
:102A700091E00E945223E0919401F0919501EE0DB6
:102A8000FF1D0081C02ED12C84E0D594C7948A9577
:102A9000E1F70F70C0E0D0E010E0CC16DD0619F4CD
:102AA0006CE672E008C00C171D0719F469E672E0C5
:102AB00002C066E672E087E991E00E945223CF30BF
:102AC000D10531F063E672E087E991E00E9452237C
:102AD0002196C031D10509F760E672E087E991E0FF
:102AE0000E9483238FEFE81AF80A8DE0E816F104BC
:102AF00009F0BBCF6EE572E087E991E0DF91CF91FD
:102B00001F910F91FF90EF90DF90CF900C94832353
:102B1000EF92FF920F931F93CF93DF936CE572E0D8
:102B200087E991E00E945223E0919401F091950190
:102B30000585E02EF12C84E0F594E7948A95E1F781
:102B40000F70C0E0D0E010E0EC16FD0619F46AE565
:102B500072E005C00C171D0791F468E572E087E983
:102B600091E00E945223E0919401F09195014AE096
:102B700050E0668587E991E00E94FD2306C065E587
:102B800072E087E991E00E945223CF30D10531F005
:102B900062E572E087E991E00E9452232196C031FC
:102BA000D10591F660E572E087E991E0DF91CF9180
:102BB0001F910F91FF90EF900C9483230F931F931D
:102BC000CF93DF93813041F589E00E94452BC82FD8
:102BD00088E00E94452BC295CC0FC07E8295807FF5
:102BE000C82B87E00E94452B082F86E00E94452BCA
:102BF000182F85E00E94452BD82F84E00E94452B9A
:102C0000902F990F990F990F8C2B982B812F880F4C
:102C1000880FC82FC92B1FC0823009F58AE00E9497
:102C2000452BC82F80E10E94452BC295C07F880F9D
:102C3000880F880FC82B8EE00E94452B182F8FE03D
:102C40000E94452BD82F82E10E94452B110F110FB6
:102C50008C2BC12FC82B8D2F880F8C2B11C083304C
:102C600079F4E0919401F0919501EC50FF4F61E00F
:102C700080819181DF91CF911F910F910C947F11F1
:102C8000DF91CF911F910F910895CF93C62F81307F
:102C900009F5617084E00E94162BC1FB662760F97C
:102CA00085E00E94162BC2FB662760F986E00E9431
:102CB000162BC3FB662760F987E00E94162BC4FB26
:102CC000662760F988E00E94162BC5FB662760F92D
:102CD00089E01CC08230E9F4617082E10E94162B09
:102CE000C1FB662760F98FE00E94162BC2FB6627A6
:102CF00060F98EE00E94162BC3FB662760F980E125
:102D00000E94162BC4FB662760F98AE0CF910C94D1
:102D1000162B833069F4E0919401F0919501EC5009
:102D2000FF4F462F63E180819181CF910C94AD10CC
:102D3000CF910895CF93C62F813009F5617084E05B
:102D40000E94DA2AC1FB662760F985E00E94DA2A30
:102D5000C2FB662760F986E00E94DA2AC3FB662779
:102D600060F987E00E94DA2AC4FB662760F988E0F0
:102D70000E94DA2AC5FB662760F989E01CC0823010
:102D8000E9F4617082E10E94DA2AC1FB662760F9EA
:102D90008FE00E94DA2AC2FB662760F98EE00E946B
:102DA000DA2AC3FB662760F980E10E94DA2AC4FBB5
:102DB000662760F98AE0CF910C94DA2A833071F4A7
:102DC000462F4095E0919401F0919501EC50FF4F12
:102DD00061E080819181CF910C94AD10CF910895E5
:102DE0008F929F92AF92BF92CF92DF92EF92FF921B
:102DF0000F93CF93DF9380919401909195010E945E
:102E0000490680919401909195010E9444076B01BD
:102E10007C01812C912C80ECA82E8FE7B82E0FEF2F
:102E20002FEF4FEF65E080919401909195010E9402
:102E3000540780919401909195010E944C076B0179
:102E40007C012FEF4FEF65E0809194019091950107
:102E50000E945407C0919401D0919501FE01EF5A50
:102E6000FF4F60817181072E000C880B990B0E9427
:102E70008C204B015C01FE01E15BFF4F60817181A1
:102E8000072E000C880B990B0E948C206B017C0193
:102E90002FEF4FEF66E0CE010E945407C0919401DE
:102EA000D0919501FE01E35BFF4F60817181072E98
:102EB000000C880B990B0E948C204B015C01FE01D9
:102EC000E55BFF4F60817181072E000C880B990B29
:102ED0000E948C206B017C012FEF4FEF66E0CE014A
:102EE0000E94540720E040E060E0809194019091BE
:102EF00095010E94BA078091940190919501FC017F
:102F0000E95BFF4F80809180A280B3803497C080BE
:102F1000D180E280F38020E040E066E00E94540728
:102F2000812C912C90ECA92E9FE7B92E750164019C
:102F30002FEF4FEF60E080919401909195010E94F6
:102F400054078091940190919501DF91CF910F9159
:102F5000FF90EF90DF90CF90BF90AF909F908F90B9
:102F60000C945E06FF920F931F93CF93DF93C09153
:102F70009401D0919501FE01E15BFF4F0081118129
:102F800001151105A1F4329680819181892B79F484
:102F9000369780819181892B51F43296808191817D
:102FA000892B29F40E94CA1461E472E0C7C086EE3E
:102FB00090E00E940214F82E87EE90E00E94021426
:102FC0002F2D30E0322F2227A901480F511D9A01E1
:102FD000201B310B121613062CF42B3031050CF08C
:102FE00075C007C09801241B350B2B3031050CF040
:102FF0006DC088EE90E00E940214F82E89EE90E0F9
:103000000E9402142F2D30E0322F2227A901480FF1
:10301000511DCA01FE01EF5AFF4F20813181421B31
:10302000530B141615062CF44B3051050CF04EC002
:1030300006C0281B390B2B3031050CF047C08AEE37
:1030400090E00E940214F82E8BEE90E00E94021491
:103050002F2D30E0322F2227A901480F511DCA0120
:10306000FE01E55BFF4F20813181421B530B14169B
:10307000150624F44B3051054CF505C0281B390BBF
:103080002B3031051CF58CEE90E00E940214F82ED6
:103090008DEE90E00E9402142F2D30E0322F222777
:1030A000A901480F511DCA01C35BDF4F2881398137
:1030B000421B530B1416150624F44B30510534F4FF
:1030C0003BC0281B390B2B303105B4F14AE050E0EE
:1030D000B80187E991E00E945924E0919401F091B0
:1030E0009501EF5AFF4F608171814AE050E087E916
:1030F00091E00E945924E0919401F0919501E55BE3
:10310000FF4F608171814AE050E087E991E00E94C1
:103110005924E0919401F0919501E35BFF4F6081A8
:1031200071814AE050E087E991E00E9459240E94B1
:10313000371463E272E002C061E172E087E991E076
:10314000DF91CF911F910F91FF900C9483238F9269
:103150009F92AF92BF92CF92DF92EF92FF920F9326
:103160001F93CF93DF93182F062F80919401909196
:1031700095010E944906C0E0D0E0CE010E948F1464
:10318000CE010E94B714202F412F61E0809194015D
:10319000909195010E946D0F2196C031D10569F77C
:1031A000812C912C80ECA82E8FE7B82E750164013C
:1031B0000FEF2FEF4FEF60E0809194019091950118
:1031C0000E9454078091940190919501DF91CF91D5
:1031D0001F910F91FF90EF90DF90CF90BF90AF9035
:1031E0009F908F900C945E064F925F926F927F92A9
:1031F0008F929F92AF92BF92CF92DF92EF92FF9207
:103200000F931F93CF93DF93182F80919401909188
:1032100095010E94490680919401909195012AE0C0
:10322000FC01268760E80E940C05112311F002E0E2
:1032300001C001E0C0E0D0E0FC2EF29420EFF222C9
:103240003E01FFEF6F1A7F0A80E16816710471F486
:103250002196C031D10581F762E880919401909167
:1032600095010E940C05C0E0D0E012C0809194014D
:10327000909195012F2D2629FC0125870E94010799
:10328000602F80919401909195010E94AB0DD9CF50
:10329000E0919401F0919501E051FF4F6FEF7FEFC6
:1032A000808191810E94B813E0919401F091950181
:1032B000E051FF4FBE01808191810E94D813602FA1
:1032C00080919401909195010E94AB0D2196C0319F
:1032D000D105F1F660E880919401909195010E94EA
:1032E0000C05C0E0D0E0E0919401F0919501E0512F
:1032F000FF4FBE01808191810E94B813E09194013B
:10330000F0919501E051FF4F6FEF7FEF8081918148
:103310000E94D813602F80919401909195010E9492
:10332000AB0D2196C031D105F1F662E88091940190
:10333000909195010E940C05E0919401F091950106
:10334000E051FF4F6FEF7FEF808191810E94B813B2
:10335000E0919401F0919501E051FF4F6FEF7FEF05
:10336000808191810E94D813111102C061E001C0D7
:1033700062E080919401909195010E94AB0D612CC7
:10338000712C23018FEF481A580AE20180919401B1
:103390009091950120E04C2F662D1123B9F00E94E9
:1033A000BA078091940190919501FC01E95BFF4F70
:1033B00080809180A280B3803497C080D180E280E9
:1033C000F3800FEF2C2F462D64E012C00E94BA0745
:1033D0006B017C01812C912C90ECA92E9FE7B92EDA
:1033E0000FEF2C2F462D63E0809194019091950171
:1033F0000E9454072196C131D10541F63201F0E116
:103400004F16510409F0BDCF812C912C80ECA82ED1
:103410008FE7B82E750164010FEF2FEF4FEF60E0DB
:1034200080919401909195010E94540760E28091EF
:103430009401909195010E940C05809194019091C6
:103440009501DF91CF911F910F91FF90EF90DF9049
:10345000CF90BF90AF909F908F907F906F905F9034
:103460004F900C945E06EF920F931F93CF93DF93D0
:1034700000D000D0CDB7DEB7809194019091950136
:103480000E94490665EE71E087E991E00E9483237E
:1034900080919401909195010E9421068091940160
:1034A000909195010E943E06E0919401F091950162
:1034B000EE50FF4FAE014F5F5F4FBE016D5F7F4F1C
:1034C000808191810E94FF0364ED71E087E991E0C2
:1034D0000E9452236B817C814AE050E087E991E0B1
:1034E0000E94592464EC71E087E991E00E94522324
:1034F00069817A814AE050E087E991E00E9459248D
:1035000068E971E087E991E00E9483236FE871E048
:1035100087E991E00E945223809194019091950156
:103520000E944407AB01BC012AE030E087E991E04A
:103530000E94462566E871E087E991E00E945223E7
:1035400080919401909195010E944C07AB01BC01C0
:103550002AE030E087E991E00E94462561E771E0CA
:1035600087E991E00E945223E0919401F091950146
:10357000E15BFF4F608171814AE050E087E991E0B3
:103580000E9459246CE571E087E991E00E94522382
:10359000E0919401F0919501EF5AFF4F60817181A4
:1035A0004AE050E087E991E00E94592467E471E025
:1035B00087E991E00E945223E0919401F0919501F6
:1035C000E55BFF4F608171814AE050E087E991E05F
:1035D0000E94592462E371E087E991E00E9452233E
:1035E000E0919401F0919501E35BFF4F608171815F
:1035F0004AE050E087E991E00E94592466E071E0DA
:1036000087E991E00E94832320E04FEF6FEF8091E4
:103610009401909195010E94BA07AB01BC0122E090
:1036200030E087E991E00E94462520E04FEF60E01E
:1036300080919401909195010E94BA07AB01BC0161
:1036400022E030E087E991E00E94462520E040E05A
:103650006FEF80919401909195010E94BA07AB01A0
:10366000BC0122E030E087E991E00E94462520E09D
:1036700041E060E080919401909195010E94BA0729
:10368000AB01BC0122E030E087E991E00E944625D1
:1036900060EF70E087E991E00E94832360E011E031
:1036A000160F20E0412F80919401909195010E9486
:1036B000BA07AB01BC0122E030E087E991E00E944B
:1036C0004625612F1F3059F762EE70E087E991E0DF
:1036D0000E945223E12C00E023E040E060E0809172
:1036E0009401909195010E946E09AB01BC0124E008
:1036F00030E087E991E00E94462523E040E061E068
:1037000080919401909195010E946E09AB01BC01DA
:1037100024E030E087E991E00E94462523E040E084
:1037200062E080919401909195010E946E09AB0135
:10373000BC0124E030E087E991E00E94462523E0C7
:1037400040E063E080919401909195010E946E09A0
:10375000AB01BC0124E030E087E991E00E944625FE
:1037600023E040E064E080919401909195010E94F3
:103770006E09AB01BC0124E030E087E991E00E94D2
:10378000462523E040E065E0809194019091950109
:103790000E946E09AB01BC0124E030E087E991E0B2
:1037A0000E9446250F900F900F900F90DF91CF91C0
:1037B0001F910F91EF900895CF93DF9360ED77E025
:1037C00080E090E00E94002A40E052EC61E070E06E
:1037D00087E991E00E940C2386E091E00E943B2360
:1037E000EC010E949E05D0939501C0939401CE01F7
:1037F0000E94530C882321F081E090E00E94EB327C
:103800000E94B21764E670E080E090E00E94002A17
:103810006CED70E087E991E0DF91CF910C94832308
:10382000EF92FF920F931F93CF93DF937C01C0E041
:10383000D0E0E0919401F0919501EC0FFD1F108212
:1038400000E010E087E991E00E9436221816190680
:10385000CCF787E991E00E9446228093060187FF1A
:103860000FC0E0919401F0919501EC0FFD1F2081B4
:10387000C80134E0880F991F3A95E1F7822B0AC0FE
:10388000882349F0E0919401F0919501EC0FFD1F20
:103890008081802B80830F5F1F4F0031110591F6CF
:1038A0002196CD30D10529F6C701DF91CF911F9127
:1038B0000F91FF90EF900C9404140F931F93CF93EC
:1038C000DF938C01E0919401F09195011586C0E0A1
:1038D000D0E087E991E00E94362218161906CCF74D
:1038E00087E991E00E9446228093060187FF0EC07F
:1038F000E0919401F09195012585CE0134E0880F87
:10390000991F3A95E1F7822B85870AC0882341F0F9
:10391000E0919401F091950195859C2B9587868780
:103920002196C031D105A9F6C801DF91CF911F9131
:103930000F910C9425148F929F92AF92BF92CF92C9
:10394000DF92EF92FF920F93CF93DF9387E991E09D
:103950000E94362218161906CCF787E991E00E94DA
:103960004622809306018335C1F487E991E00E94E5
:10397000362218161906CCF787E991E00E944622F4
:10398000DF91CF910F91FF90EF90DF90CF90BF909C
:10399000AF909F908F900C945D1C8D34C1F487E99B
:1039A00091E00E94362218161906CCF787E991E0BB
:1039B0000E944622DF91CF910F91FF90EF90DF9010
:1039C000CF90BF90AF909F908F900C94101C833637
:1039D00019F461E080E004C0833479F461E081E0AF
:1039E000DF91CF910F91FF90EF90DF90CF90BF903C
:1039F000AF909F908F900C94A718843569F4DF9155
:103A0000CF910F91FF90EF90DF90CF90BF90AF904C
:103A10009F908F900C94331A8B3211F480E003C086
:103A20008A3271F481E0DF91CF910F91FF90EF9096
:103A3000DF90CF90BF90AF909F908F900C94F41830
:103A4000823739F5E12CF12C6DEC70E087E991E0DB
:103A50000E9452234AE050E0B70187E991E00E94BA
:103A600052246AEC70E087E991E00E948323C70149
:103A70000E948F14C7010E94B7140E9425150E944E
:103A800088158FEFE81AF80A80E1E816F104E1F6EC
:103A90001BC28B3469F4DF91CF910F91FF90EF90AF
:103AA000DF90CF90BF90AF909F908F900C94F016C6
:103AB000823489F48091940190919501DF91CF91A6
:103AC0000F91FF90EF90DF90CF90BF90AF909F90BD
:103AD0008F900C9449068A3509F0B1C087E991E0CE
:103AE0000E94362218161906CCF787E991E00E9449
:103AF0004622C82F87E991E00E943622181619063F
:103B0000CCF787E991E00E94462220E0482F6C2FF5
:103B100080919401909195010E94BA070E945420CF
:103B20004B015C010E948C206B017C0120E23CEB8C
:103B30004EEB5CE40E94DD1F87FF05C060E387E970
:103B400091E00E94782320E836E948E15BE4C70170
:103B5000B6010E94DD1F87FF05C060E387E991E0A1
:103B60000E94782320E034E244E759E4C701B6011B
:103B70000E94DD1F87FF05C060E387E991E00E9496
:103B8000782320E030E543EC57E4C701B6010E94FA
:103B9000DD1F87FF05C060E387E991E00E9478237D
:103BA00020E030E44CE156E4C701B6010E94DD1F7D
:103BB00087FF05C060E387E991E00E94782320E059
:103BC00030E04AE754E4C701B6010E94DD1F87FFD9
:103BD00005C060E387E991E00E94782320E030E0AF
:103BE00048EC52E4C701B6010E94DD1F87FF05C003
:103BF00060E387E991E00E94782320E030E040E232
:103C000051E4C701B6010E94DD1F87FF05C060E3D4
:103C100087E991E00E9478232AE030E0B501A40111
:103C200087E991E0DF91CF910F91FF90EF90DF90C6
:103C3000CF90BF90AF909F908F900C940A248C34BB
:103C400021F481E0809396013FC18C3619F41092E3
:103C500096013AC1803409F061C087E991E00E9481
:103C6000362218161906CCF787E991E00E94462201
:103C7000C82F87E991E00E94362218161906CCF762
:103C800087E991E00E944622F82E87E991E00E94A0
:103C9000362218161906CCF787E991E00E944622D1
:103CA000D82E87E991E00E94362218161906CCF723
:103CB00087E991E00E944622682FC23079F03CF4F7
:103CC000C13009F001C1E090960101E00AC0C330A3
:103CD00089F0C43009F0F8C022E00DC0E0909601F0
:103CE00002E02D2D4F2D80919401909195010E941D
:103CF0006E09EAC021E04D2D6F2D809194019091C5
:103D00009501DF91CF910F91FF90EF90DF90CF90D1
:103D1000BF90AF909F908F900C94BA07853209F0B6
:103D200065C087E991E00E94362218161906CCF783
:103D300087E991E00E944622D82F87E991E00E940E
:103D4000362218161906CCF787E991E00E94462220
:103D5000C82FD23791F40E94DE15682F87E991E0D1
:103D6000DF91CF910F91FF90EF90DF90CF90BF90B8
:103D7000AF909F908F900C940722D737D1F487E9AA
:103D800091E00E94362218161906CCF787E991E0D7
:103D90000E944622682F8C2FDF91CF910F91FF90C8
:103DA000EF90DF90CF90BF90AF909F908F900C944A
:103DB0004516D43609F088C087E991E00E94362282
:103DC00018161906CCF787E991E00E944622682F61
:103DD0008C2FDF91CF910F91FF90EF90DF90CF90DC
:103DE000BF90AF909F908F900C949A16863409F0F4
:103DF00052C087E991E00E94362218161906CCF7C6
:103E000087E991E00E94462280930601C82F823004
:103E100024F084361CF0C3E601C0C2E08091940116
:103E2000909195010E945E0680E00E94D102AC2F25
:103E3000CC0FBB0B28EE33E00E948A31E091940155
:103E4000F0919501ED5AFF4F6083718382839383D4
:103E50000E940F0260E070E0CB010E944E028AE0F7
:103E600090E00E948D0281E00E946E0385E090E068
:103E70000E94A4028091940190919501DF91CF91CD
:103E80000F91FF90EF90DF90CF90BF90AF909F90F9
:103E90008F900C942A0C8835B9F4809194019091FC
:103EA00095010E945E068091940190919501DF91A9
:103EB000CF910F91FF90EF90DF90CF90BF90AF9098
:103EC0009F908F900C942106DF91CF910F91FF90DE
:103ED000EF90DF90CF90BF90AF909F908F9008951C
:103EE0005058BB27AA270E94881F0C9402210E94C9
:103EF000F42038F00E94FB2020F039F49F3F19F4A1
:103F000026F40C94F1200EF4E095E7FB0C94EB20E2
:103F1000E92F0E94132158F3BA1762077307840729
:103F2000950720F079F4A6F50C9435210EF4E09570
:103F30000B2EBA2FA02D0B01B90190010C01CA0163
:103F4000A0011124FF27591B99F0593F50F4503E0E
:103F500068F11A16F040A22F232F342F4427585F00
:103F6000F3CF469537952795A795F0405395C9F718
:103F70007EF41F16BA0B620B730B840BBAF09150D0
:103F8000A1F0FF0FBB1F661F771F881FC2F70EC06F
:103F9000BA0F621F731F841F48F487957795679542
:103FA000B795F7959E3F08F0B0CF9395880F08F02E
:103FB0009927EE0F9795879508950E94C72008F4DA
:103FC00081E008950E94F61F0C9402210E94FB20BC
:103FD00058F00E94F42040F029F45F3F29F00C943F
:103FE000EB2051110C9436210C94F1200E941321E6
:103FF00068F39923B1F3552391F3951B550BBB2718
:10400000AA2762177307840738F09F5F5F4F220F5C
:10401000331F441FAA1FA9F335D00E2E3AF0E0E853
:1040200032D091505040E695001CCAF72BD0FE2F9D
:1040300029D0660F771F881FBB1F26173707480731
:10404000AB07B0E809F0BB0B802DBF01FF279358E9
:104050005F4F3AF09E3F510578F00C94EB200C94A2
:1040600036215F3FE4F3983ED4F3869577956795C4
:10407000B795F7959F5FC9F7880F911D969587951E
:1040800097F90895E1E0660F771F881FBB1F62173D
:1040900073078407BA0720F0621B730B840BBA0BFB
:1040A000EE1F88F7E09508950E945B206894B11197
:1040B0000C94362108950E941B2188F09F5798F098
:1040C000B92F9927B751B0F0E1F0660F771F881F1D
:1040D000991F1AF0BA95C9F714C0B13091F00E9437
:1040E0003521B1E008950C943521672F782F88276A
:1040F000B85F39F0B93FCCF3869577956795B3955E
:10410000D9F73EF490958095709561957F4F8F4FCC
:104110009F4F0895E89409C097FB3EF490958095D1
:10412000709561957F4F8F4F9F4F9923A9F0F92F7D
:1041300096E9BB279395F695879577956795B795FB
:10414000F111F8CFFAF4BB0F11F460FF1BC06F5FE1
:104150007F4F8F4F9F4F16C0882311F096E911C0F3
:10416000772321F09EE8872F762F05C0662371F014
:1041700096E8862F70E060E02AF09A95660F771F28
:10418000881FDAF7880F9695879597F90895990F04
:104190000008550FAA0BE0E8FEEF16161706E80711
:1041A000F907C0F012161306E407F50798F0621B32
:1041B000730B840B950B39F40A2661F0232B242B07
:1041C000252B21F408950A2609F4A140A6958FEF26
:1041D000811D811D089597F99F6780E870E060E078
:1041E00008959FEF80EC089500240A941616170690
:1041F00018060906089500240A94121613061406D8
:1042000005060895092E0394000C11F4882352F03A
:10421000BB0F40F4BF2B11F460FF04C06F5F7F4FF2
:104220008F4F9F4F089557FD9058440F551F59F0D9
:104230005F3F71F04795880F97FB991F61F09F3F93
:1042400079F087950895121613061406551FF2CFBC
:104250004695F1DF08C0161617061806991FF1CF0C
:1042600086957105610508940895E894BB27662733
:104270007727CB0197F908950E944F210C940221D2
:104280000E94F42038F00E94FB2020F0952311F0CA
:104290000C94EB200C94F12011240C9436210E94F4
:1042A000132170F3959FC1F3950F50E0551F629F46
:1042B000F001729FBB27F00DB11D639FAA27F00D7F
:1042C000B11DAA1F649F6627B00DA11D661F829FA6
:1042D0002227B00DA11D621F739FB00DA11D621F8B
:1042E000839FA00D611D221F749F3327A00D611DA8
:1042F000231F849F600D211D822F762F6A2F11248A
:104300009F5750409AF0F1F088234AF0EE0FFF1FBC
:10431000BB1F661F771F881F91505040A9F79E3F13
:10432000510580F00C94EB200C9436215F3FE4F3B0
:10433000983ED4F3869577956795B795F795E79569
:104340009F5FC1F7FE2B880F911D9695879597F972
:10435000089519F416F40C94F1200C94EF210E94A6
:104360001B21B8F39923C9F3B6F39F57550B87FF69
:104370000E94FD210024A0E640EA90018058569555
:10438000979528F4805C660F771F881F20F026170A
:104390003707480730F4621B730B840B202931293F
:1043A0004A2BA69517940794202531254A2758F7BC
:1043B000660F771F881F20F026173707480730F44D
:1043C000620B730B840B200D311D411DA09581F7ED
:1043D000B901842F9158880F9695879508959F3F2E
:1043E00031F0915020F4879577956795B795880FB0
:1043F000911D9695879597F9089591505040660FB5
:10440000771F881FD2F7089580E090E00895CF933A
:10441000DF931F92CDB7DEB76983DC01ED91FC918C
:104420000280F381E02D41E050E0BE016F5F7F4FDD
:1044300009950F90DF91CF910895CF93DF93EC0111
:104440008C859D8597FF05C082E00E945E269D8732
:104450008C878C859D85DF91CF91089583E00E94A4
:10446000752690E0089583E00C94F328FC01848580
:10447000958597FD06C082E00E94092690E001968E
:10448000089582E00E94092690E00895FC01848549
:10449000958597FD05C02FEF3FEF35872487089559
:1044A00082E00C945E26CF93DF93EC0180911201A1
:1044B000882331F083E00E948F261816190634F005
:1044C00081E090E09B838A8380E090E0DF91CF9150
:1044D0000895EEEFFFE72591349181E02B3F3C4DAD
:1044E00009F080E00895FC0190819E5F908342E492
:1044F00050E063E772E080E80C943F27FC01818183
:104500009081913A59F4813209F065C047E050E05A
:104510006BE071E080E00E943F275BC0913209F0C0
:104520005AC0833269F482819381A0E0B0E0809325
:10453000070190930801A0930901B0930A0149C0B3
:10454000803239F467E070E08BE091E00E946627EA
:1045500040C0823209F03DC08281809312010E94E6
:104560006922882319F0EEEFFAE002C0E0E0F8E0FB
:1045700080910B0190910C01A0910D01B0910E0161
:10458000803B9440A105B10541F58091120180FD69
:1045900024C0EE3F8AE0F80751F08081918187378F
:1045A00027E7920721F09093FF0A8093FE0A87E79E
:1045B00097E791838083809160008093E7019BE07F
:1045C00088E10FB6F894A895809360000FBE909391
:1045D000600081E0089580E00895808191818737AF
:1045E0009747B9F7A8958091600088618093600033
:1045F0008091E70180936000EE3F8AE0F80739F090
:104600008091FE0A9091FF0A91838083E2CF1092FD
:10461000FF0A1092FE0ADDCF2FEF3FEFFC01358736
:1046200024870895E7E9F1E01382128288EE93E08F
:10463000A0E0B0E084839583A683B78385E691E00C
:10464000918380838FEF9FEF9587848708950895E6
:104650000E94472A0E94272388EE91E00E947E292B
:104660000E94DC1BC0E0D0E00E949B1C2097E1F37D
:104670000E940000F9CF0C94B4316115710579F0F6
:10468000FB0101900020E9F73197AF01461B570B62
:10469000DC01ED91FC910280F381E02D099480E032
:1046A00090E00895EF92FF920F931F93CF93DF93C3
:1046B0008C017B01C0E0D0E0F701EC0FFD1F64919D
:1046C000662361F0D801ED91FC910190F081E02D1D
:1046D000C8010995892B11F02196EECFCE01DF910B
:1046E000CF911F910F91FF90EF9008950C943D236F
:1046F000DC01ED91FC910190F081E02D099463E7DC
:1047000071E00C943D230F931F93CF93DF93EC0143
:104710000E9452238C01CE010E947F23800F911FA3
:10472000DF91CF911F910F9108950F931F93CF9316
:10473000DF93EC010E943D238C01CE010E947F2378
:10474000800F911FDF91CF911F910F9108958F924C
:104750009F92AF92BF92EF92FF920F931F93CF93CE
:10476000DF93CDB7DEB7A1970FB6F894DEBF0FBECB
:10477000CDBF7C01FA01CB0119A2223008F42AE056
:104780008E010F5D1F4F822E912CA12CB12CBF01E9
:10479000A50194010E946231F901CA010150110979
:1047A0006A3010F4605D01C0695CD8016C93232B02
:1047B000242B252B61F7B801C7010E943D23A19648
:1047C0000FB6F894DEBF0FBECDBFDF91CF911F9122
:1047D0000F91FF90EF90BF90AF909F908F900895B2
:1047E0002115310541F4DC01ED91FC910190F0813E
:1047F000E02D642F09940C94A7239A01462F50E0D2
:1048000060E070E00C94F0239A01AB0160E070E08E
:104810000C94F023CF92DF92EF92FF920F931F93AD
:10482000CF93DF932115310581F4DC01ED91FC91EB
:104830000190F081E02D642FDF91CF911F910F91B6
:10484000FF90EF90DF90CF9009942A30310501F569
:1048500077FF1DC06A017B01EC016DE20E947823A5
:104860008C0144275527BA014C195D096E097F094F
:104870002AE0CE010E94A723800F911FDF91CF91E4
:104880001F910F91FF90EF90DF90CF9008952AE055
:10489000DF91CF911F910F91FF90EF90DF90CF901C
:1048A0000C94A7239A01AB01770F660B770B0C943E
:1048B0000A240F931F93CF93DF93EC010E9452249D
:1048C0008C01CE010E947F23800F911FDF91CF9139
:1048D0001F910F9108957F928F929F92AF92BF92F6
:1048E000CF92DF92EF92FF920F931F93CF93DF93BC
:1048F0008C016A017B01722E9A01AB01C701B601DE
:104900000E944931882319F066E771E027C046010B
:104910005701E894B7F82FEF3FEF4FE75FE7C50186
:10492000B4010E94493181110DC02FEF3FEF4FE7D5
:104930005FE7C501B4010E94DD1F18161CF46AE789
:1049400071E00CC02FEF3FEF4FE75FE4C701B60106
:104950000E944431181694F46EE771E0C801DF91AB
:10496000CF911F910F91FF90EF90DF90CF90BF906C
:10497000AF909F908F907F900C943D232FEF3FEF4F
:104980004FE75FECC701B6010E94DD1F87FDE4CF52
:1049900020E030E0A901C701B6010E94DD1F87FFBA
:1049A0000AC06DE2C8010E947823EC01F7FAF09486
:1049B000F7F8F09402C0C0E0D0E0B12C60E070E005
:1049C00080E09FE37B1441F020E030E040E251E4DE
:1049D0000E94E21FB394F6CFA70196010E94711FB7
:1049E0006B017C010E945B204B015C012AE0AB0162
:1049F000BC01C8010E94A723C80FD91F7720B9F1B5
:104A0000C501B4010E948A209B01AC01C701B60117
:104A10000E94701F6B017C016EE2C8010E94782326
:104A2000C80FD91F20E030E040E251E4C701B601D1
:104A30000E943C214B015C010E945B206B017C01C8
:104A40004AE050E0C8010E940424C80FD91FB601F3
:104A500080E090E00E948A209B01AC01C501B40176
:104A60000E94701F6B017C017A947110DBCFCE0124
:104A7000DF91CF911F910F91FF90EF90DF90CF903A
:104A8000BF90AF909F908F907F9008950F931F934A
:104A9000CF93DF93EC010E946B248C01CE010E9426
:104AA0007F23800F911FDF91CF911F910F91089568
:104AB000615030F02091F100FC0120830196F8CF85
:104AC000289884E68093F00108954091EB0150917D
:104AD000EC012091E9013091EA0142175307B4F447
:104AE0009091E8009570E1F39091E80092FD19C073
:104AF0008093F1008091EB019091EC0101968F730E
:104B00009927892B19F48EEF8093E8008091EB01AF
:104B10009091EC0101969093EC018093EB0181E080
:104B2000089580E00895DF92EF92FF920F931F9314
:104B3000CF93DF93D82EF92EE42E062F10E0C80174
:104B40000196880F0E94652583E00E946525CD2D82
:104B5000DF2D0C0F1D1FC017D10789F0E7FE03C022
:104B6000FE01849101C088810E946525F82E80E0B5
:104B70000E9465258F2121968111EDCF01C081E032
:104B8000DF91CF911F910F91FF90EF90DF900895EB
:104B90008091D70081608093D70080EA8093D8000D
:104BA00089B5806189BD89B5826089BD09B400FE7F
:104BB000FDCF61E070E080E090E00E94002A8091EB
:104BC000D8008F7C80618093D8008091E000807F46
:104BD0008093E0000895CF93DF931F92CDB7DEB7A7
:104BE0001982CE0101960E9473220E94652DBE019A
:104BF0006F5F7F4F0E94E02C89810F90DF91CF91F2
:104C000008952FB7FC012083F89467706093E90042
:104C10000895CF93DF931F92CDB7DEB7682FCE01F3
:104C200001960E9401268091F20099819FBF0F900A
:104C3000DF91CF910895EF92FF920F931F93CF933F
:104C4000DF931F92CDB7DEB79091EF01992311F05A
:104C500057FF03C08FEF9FEF29C08A017B01682FA8
:104C6000CE0101960E9401262091F20030E0021749
:104C700013070CF49801822FF70194E6815038F065
:104C800028989093F0014091F1004193F7CF2115BE
:104C9000310521F08091F200882321F089818FBFB6
:104CA000C90104C08BE68093E800F8CF0F90DF9134
:104CB000CF911F910F91FF90EF900895CF93DF93C5
:104CC0001F92CDB7DEB741E050E0BE016F5F7F4F6E
:104CD0000E941B26019719F4898190E002C08FEF92
:104CE0009FEF0F90DF91CF910895CF93DF931F92A5
:104CF000CDB7DEB7682FCE0101960E9401269091B4
:104D0000E800892F807295FF04C09091F20080E442
:104D1000891B99819FBF0F90DF91CF9108955F927A
:104D20006F927F928F929F92AF92BF92CF92DF92BB
:104D3000EF92FF920F931F93CF93DF931F92CDB704
:104D4000DEB7982E6B01B42E052F8091EF018111F3
:104D500003C08FEF9FEF77C08091ED0180FF05C00A
:104D60008091E00082608093E000EB2CF02EA12C7B
:104D70008AEF882E892D8072682E892D8074582E96
:104D80009AE3792EE114F10419F4AA2009F455C02C
:104D9000892D0E947526182F81110AC08A948820B7
:104DA000C1F261E070E080E090E00E94002AEACF6A
:104DB00090E0E816F9060CF41E2D692DCE0101963F
:104DC0000E9401268091E80085FF34C0812F90E089
:104DD000E81AF90A662029F01150A0F01092F100AB
:104DE000FBCFF60197FE0AC0115050F0249120939A
:104DF000F1003196F9CF21912093F1001150D8F7AD
:104E0000C80ED91EAA2019F07092E8000BC080913C
:104E1000E80085FD09C07092E800AA24A394E1147B
:104E2000F10441F0A12C06C0E114F10419F4511071
:104E30007092E80089818FBFA5CF5D9884E680934A
:104E4000F1018B2D902F0F90DF91CF911F910F913A
:104E5000FF90EF90DF90CF90BF90AF909F908F909A
:104E60007F906F905F9008951092E9001092EC018E
:104E70001092EB019093EA018093E9010895DF928B
:104E8000EF92FF920F931F93CF93DF93D82E8A0157
:104E90007B01E40EF51EEB01CE15DF0571F0D7FEA8
:104EA00003C0FE01849101C088810E94652521967E
:104EB0008111F2CF8FEF9FEF01C0C801DF91CF9139
:104EC0001F910F91FF90EF90DF900895AF92BF92E6
:104ED000DF92EF92FF920F931F93CF93DF935C01CA
:104EE0008B01EB019BEFD92E2097C1F07E01C134DD
:104EF000D1051CF080E4E82EF12C8091E80082FFBF
:104F0000FCCFC8018C1B9D0B6E2D8A0D9B1D0E9432
:104F10005825D092E800CE19DF09E6CFC801DF910D
:104F2000CF911F910F91FF90EF90DF90BF90AF90C6
:104F300008951F920F920FB60F921124CF92DF9215
:104F4000EF92FF920F931F932F933F934F935F9393
:104F50006F937F938F939F93AF93BF93EF93FF9341
:104F6000CF93DF93CDB7DEB76C97DEBFCDBF109286
:104F7000E9008091E80083FF17C168E0CE01459603
:104F80000E94582582EF8093E8008D8987FF05C035
:104F90009091E80090FFFCCF03C09EEF9093E80053
:104FA000982F907609F0D8C09E894F89588D2F8907
:104FB000188D91110CC0803829F48091EE018093F6
:104FC000F10002C01092F1001092F100E6C09130A1
:104FD00051F48111E2C04130510509F0DEC08091E9
:104FE000EE018D7F0BC0933061F48111D6C041304A
:104FF000510509F0D2C08091EE0182608093EE01EC
:10500000CCC0953049F48091E80080FFFCCF822F1E
:1050100080688093E300C1C0963009F070C0EB8CCB
:10502000FC8C123069F580E090E00E9434270E94E9
:10503000EB2599E09E012F5F3F4F6901F901292F70
:1050400011922A95E9F799831A8391E09E8390EA59
:1050500098879AEF99872091EB013091EC01275FB7
:105060003F4F3C832B838D83C7010E94342749E047
:1050700050E0B60180E00E943F270E94EB258DC0E2
:10508000C7010E9434270E94652DBE016B5E7F4FD1
:105090000E94092D009719F00CF07FC082C01130DA
:1050A00009F470C0133009F07CC08F89882309F49B
:1050B0006CC0823029F440E860E183ED92E006C0E4
:1050C000813039F440E86BE087EC92E00E94932550
:1050D00056C0833009F065C00E94652D8E010F5FB8
:1050E0001F4FB8010E94282DF80101900020E9F718
:1050F0003197BF01601B710B40E0C801E7CF9730CB
:1051000009F44FC0983021F481E08093F10045C04C
:10511000993009F042C0837009F043C0E4E1F1E046
:1051200081E031E096E32081211109C08EE7809370
:10513000EA001092EA008F898093EF012EC08093DD
:10514000E9003093EB0021912093EC009093ED0067
:105150008F5F873041F7EACF8B8D9C8D0E9434277B
:10516000898D811105C0CE0145960E947E2207C01F
:105170000E94652DBE016B5E7F4F0E94472D8823E4
:1051800081F00BC065EB72E002C064EE72E0FB01DF
:10519000449150E080E80E943F278EEF8093E80022
:1051A00003C081E28093EB006C960FB6F894DEBFEB
:1051B0000FBECDBFDF91CF91FF91EF91BF91AF9126
:1051C0009F918F917F916F915F914F913F912F911F
:1051D0001F910F91FF90EF90DF90CF900F900FBE37
:1051E0000F901F9018958093E9008091F20088231A
:1051F00019F08AE38093E80008951F920F920FB68A
:105200000F9211242F933F934F935F936F937F934C
:105210008F939F93AF93BF93CF93EF93FF93C091DF
:10522000E1008091E100837F8093E100C3FF0FC024
:105230001092E90081E08093EB001092EC0082E391
:105240008093ED001092EF0188E08093F000C2FFA0
:1052500019C083E00E94F3288091F101882339F07E
:105260008091F10181508093F101882389F180912F
:10527000F001882339F08091F00181508093F00192
:10528000882341F1C4FF10C08091E2008E7E8160CE
:105290008093E2008091E1008F7E8093E100809115
:1052A000ED018E7E806111C0C0FF16C08091E200CA
:1052B0008E7E80618093E2008091E1008E7E8093FB
:1052C000E1008091ED018E7E81608093ED0104C04C
:1052D0005D9ACDCF289AD6CFFF91EF91CF91BF9114
:1052E000AF919F918F917F916F915F914F913F917E
:1052F0002F910F900FBE0F901F9018951092EF01F5
:105300001092EE011092ED010E94C825E1EEF0E04E
:1053100080818E7E80838DE08093E200559A209A72
:1053200008951F920F920FB60F9211242F933F935F
:105330008F939F93AF93BF938091F3019091F4016A
:10534000A091F501B091F6013091F20123E0230F15
:105350002D3720F40196A11DB11D05C026E8230FAD
:105360000296A11DB11D2093F2018093F301909349
:10537000F401A093F501B093F6018091F7019091AB
:10538000F801A091F901B091FA010196A11DB11D9A
:105390008093F7019093F801A093F901B093FA017B
:1053A000BF91AF919F918F913F912F910F900FBE21
:1053B0000F901F9018953FB7F8948091F701909146
:1053C000F801A091F901B091FA0126B5A89B05C09A
:1053D0002F3F19F00196A11DB11D3FBFBA2FA92F74
:1053E000982F8827820F911DA11DB11DBC01CD01F1
:1053F00042E0660F771F881F991F4A95D1F70895DD
:105400008F929F92AF92BF92CF92DF92EF92FF92D4
:105410006B017C010E94DB294B015C01C114D104AA
:10542000E104F10401F10E94DF2C0E94DB29DC0180
:10543000CB0188199909AA09BB09883E9340A105A7
:10544000B10560F321E0C21AD108E108F10888EE45
:10545000880E83E0981EA11CB11CC114D104E10484
:10546000F10419F7DBCFFF90EF90DF90CF90BF9062
:10547000AF909F908F9008958230910538F0880FFB
:10548000991F880F991F05970197F1F70895789450
:1054900084B5826084BD84B5816084BD85B5826039
:1054A00085BD85B5816085BDEEE6F0E080818160D7
:1054B0008083E1E8F0E010828081826080838081D7
:1054C00081608083E0E8F0E0808181608083E1E9B1
:1054D000F0E0808182608083808181608083E0E968
:1054E000F0E0808181608083E1ECF0E08081846085
:1054F0008083808182608083808181608083E3EC0F
:10550000F0E0808181608083E0ECF0E08081826067
:105510008083E2ECF0E0808181608083EAE7F0E064
:1055200080818460808380818260808380818160CB
:105530008083808180688083089590E0FC013197AA
:10554000EF30F105B0F5EA5AFF4F0C9484318091A9
:1055500080008F7703C0809180008F7D80938000D2
:10556000089580918000877FF9CF84B58F7702C03E
:1055700084B58F7D84BD0895809190008F7707C09A
:10558000809190008F7D03C080919000877F8093F1
:10559000900008958091C0008F7703C08091C00073
:1055A0008F7D8093C00008958091C200877F809393
:1055B000C2000895CF93DF9390E0FC01E95FFC4FB8
:1055C0002491FC01EA5DFC4F8491882361F190E015
:1055D000880F991FFC01EF59FC4FC591D491FC0134
:1055E000ED5AFC4FA591B491611109C09FB7F89491
:1055F0008881209582238883EC912E230BC0623012
:1056000061F49FB7F8948881322F30958323888383
:10561000EC912E2B2C939FBF06C08FB7F894E88196
:105620002E2B28838FBFDF91CF9108951F93CF93A7
:10563000DF93282F30E0F901E851FD4F8491F90103
:10564000E95FFC4FD491F901EA5DFC4FC491CC2392
:10565000C1F0162F81110E949D2AEC2FF0E0EE0F71
:10566000FF1FED5AFC4FA591B4919FB7F89411110B
:1056700004C08C91D095D82302C0EC91DE2BDC9332
:105680009FBFDF91CF911F910895CF93DF93282F74
:1056900030E0F901E851FD4F8491F901E95FFC4FD9
:1056A000D491F901EA5DFC4FC491CC2391F08111B2
:1056B0000E949D2AEC2FF0E0EE0FFF1FEB5BFC4FEA
:1056C000A591B491EC91ED2381E090E021F480E08C
:1056D00002C080E090E0DF91CF91089580912F0289
:1056E00090E020913002821B910908959091300240
:1056F00080912F02981750F4E92FF0E0EF5CFD4FF6
:10570000208130E09F5F9093300202C02FEF3FEF87
:10571000C9010895E091300280912F02E81730F41A
:10572000F0E0EF5CFD4F808190E008958FEF9FEFF8
:1057300008950895CF93DF93EC01E0910702F09173
:1057400008023097F1F09091300280912F02981763
:10575000C0F090E0292F30E02617370754F4DE011F
:10576000A20FB31F4C91D901AF5CBD4F4C939F5F0B
:10577000F1CF1092300260932F02CB01DF91CF91D5
:105780000994DF91CF910895E0910902F0910A0206
:10579000309729F010920D0210920C02099408958E
:1057A000CF92DF92EF92FF920F931F93CF93DF93ED
:1057B0007C01CB018A0120910B02222389F0EB01AD
:1057C0006B01C40ED51ECC15DD0569F06991D701BA
:1057D000ED91FC910190F081E02DC7010995F3CF87
:1057E000642F0E94B82DC801DF91CF911F910F91B6
:1057F000FF90EF90DF90CF900895CF93DF931F92AB
:10580000CDB7DEB7698320910B022223D1F020911E
:105810000C02203240F021E030E0FC01338322838F
:1058200080E090E015C080910D02E82FF0E0E25F8B
:10583000FD4F998190838F5F80930D0280930C02BE
:1058400005C061E0CE0101960E94B82D81E090E094
:105850000F90DF91CF910895FC011382128288EEA0
:1058600093E0A0E0B0E084839583A683B78386E8C5
:1058700091E09183808308951092300210922F025C
:1058800010920D0210920C020E94792D84EC9BE282
:105890000E94E52D8AE99BE20C94E02DCB01BA0130
:1058A0000C94A42D81E080930B0260932E02109241
:1058B0000D0210920C0208950C94522C0F93062F97
:1058C00021E040910C026EE072E080912E020E9475
:1058D000EF2E10920D0210920C0210920B020F91FB
:1058E00008954F925F926F927F92AF92BF92CF9244
:1058F000EF92FF920F931F93CF93DF935C01F62EED
:10590000D42F28013901EE2021F10E94522CCE2DF6
:10591000C43008F0C3E0C150C0F028E0C29FC0010D
:105920001124A301920104C05695479537952795F8
:105930008A95D2F7CA01B901D501ED91FC91019088
:10594000F081E02DC5010995E6CF60E0C5010E9418
:105950005E2C4D2FD13208F040E22C2D61E372E035
:105960008F2D0E94062E1092300280932F02DF911D
:10597000CF911F910F91FF90EF90CF90BF90AF907C
:105980007F906F905F904F900895CF92EF920F931A
:105990001F93C22EE12C00E010E098010E94712CB0
:1059A0001F910F91EF90CF90089521E00C94C52C9A
:1059B00061E00C945E2C8BEF91E00C942C2C0895FC
:1059C000EF92FF920F931F93CF93DF937B01FC0124
:1059D000C281D38100E010E0209781F0E881F98155
:1059E0000280F381E02DB701CE01099597FD08C033
:1059F000080F191F0884D985C02DEECFC80102C039
:105A00008FEF9FEFDF91CF911F910F91FF90EF905C
:105A100008950F931F93CF93DF938B01FC01C281F5
:105A2000D381209771F0E881F9810480F581E02D20
:105A3000B801CE010995009731F40884D985C02DAD
:105A4000F0CF80E090E0DF91CF911F910F9108950A
:105A50000F931F93CF93DF938B01FC01C281D381FE
:105A6000209771F0E881F9810680F781E02DB80177
:105A7000CE010995080F111D0884D985C02DF0CFDE
:105A8000F8011082DF91CF911F910F9108950F932C
:105A90001F93CF93DF938B01FC01C281D3812097A9
:105AA00071F0E881F9810190F081E02DB801CE011B
:105AB0000995811105C00884D985C02DF0CF80E0FB
:105AC000DF91CF911F910F9108958091550281111F
:105AD0000DC082E08093510284E0809352021092C4
